:020000040800F2
:10000000B0AF00203103000827330008BF2F0008DD
:1000100025330008430A00081D5D000800000000A9
:100020000000000000000000000000007102000855
:10003000410B000800000000CD0200081D3C000834
:100040004B0300084B0300084B0300084B03000858
:100050004B0300084B0300084B0300084B03000848
:100060004B0300084B0300084B0300084B03000838
:10007000B90A00084B0300084B0300084B030008B3
:100080004B0300084B0300084B0300084B03000818
:100090004B0300084B0300084B0300084B03000808
:1000A0004B0300084B0300084B0300084B030008F8
:1000B0004B0300084B0300084B0300084B030008E8
:1000C0004B0300084B0300084B0300084B030008D8
:1000D0004B0300084B0300084B030008CD41000808
:1000E0004B0300084B0300084B0300084B030008B8
:1000F0004B0300084B0300084B0300084B030008A8
:100100004B0300084B0300084B0300084B03000897
:100110004B0300084B0300084B030008ED3C0008AC
:100120004B0300084B0300084B0300084B03000877
:100130004B0300084B0300084B0300084B03000867
:100140004B0300084B0300084B0300082933000849
:100150004B0300084B0300084B0300084B03000847
:100160004B0300084B0300084B0300084B03000837
:100170004B0300084B0300084B030008000000007D
:100180004B0300084B03000800F002F800F061F890
:100190000AA090E8000C82448344AAF10107DA45E2
:1001A00001D100F056F8AFF2090EBAE80F0013F0D3
:1001B000010F18BFFB1A43F001031847B86900008C
:1001C000D86900000A444FF0000C10F8013B13F00E
:1001D000070408BF10F8014B1D1108BF10F8015BA0
:1001E000641E05D010F8016B641E01F8016BF9D193
:1001F00013F0080F1EBF10F8014BAD1C0C1B09D1EA
:100200006D1E58BF01F801CBFAD505E014F8016B5B
:1002100001F8016B6D1EF9D59142D6D370470000ED
:100220000023002400250026103A28BF78C1FBD8FF
:10023000520728BF30C148BF0B607047642900F0E7
:100240005781002070471FB506F046FC1FBD10B552
:1002500010BD00F09CFA1146FFF7F5FF05F066FEB1
:1002600000F0BAFA03B4FFF7F2FF03BC00F0C2FAE1
:100270002C4B19680868B0E8F04F80F30988BFF389
:100280006F8F4FF0000080F311887047000000006E
:1002900008480068006880F308884FF0000080F389
:1002A000148862B661B6BFF34F8FBFF36F8F00DF64
:1002B00000BF00BF08ED00E0DFF80C00016841F46A
:1002C00070010160704700BF88ED00E0EFF3098026
:1002D000BFF36F8F134B1A681EF0100F08BF20ED8D
:1002E000108A20E9F04F106009B44FF0500080F3FD
:1002F0001188BFF34F8FBFF36F8F06F025FA4FF0D1
:10030000000080F3118809BC19680868B0E8F04F54
:100310001EF0100F08BFB0EC108A80F30988BFF3FD
:100320006F8F704754000020EFF305807047000086
:100330000948804709480047FEE7FEE7FEE7FEE779
:10034000FEE7FEE7FEE7FEE7FEE7FEE704480549B5
:10035000054A064B70470000DD3C00088901000893
:10036000B09B0020B0AF0020B0AB0020B0AB0020AD
:1003700053EA020C00F069802DE9F04B4FF00006C3
:10038000002B1FBFB3FA83F503FA05F424FA05F630
:100390005E4012BF1643B2FA82F502FA05F4C5F1C7
:1003A00020051EBF22FA05FC44EA0C04203556EA5B
:1003B000044C4FEA144418BF641C4FF000084FF07F
:1003C0000009904271EB030C39D3002919BFB1FA2F
:1003D00081F701FA07F6B0FA80F700FA07F6C7F1DD
:1003E00020071EBF20FA07FC46EA0C062037B6FBA2
:1003F000F4FCA7EB0507103F07F01F0BCBF120061D
:100400000CFA0BFB2CFA06F644BFB3460026202F4D
:10041000A4BF5E464FF0000B5BEA060C08BF4FF02E
:10042000010B19EB0B09ABFB027C48EB0608C01B68
:1004300006FB02CC0BFB03CC71EB0C01C1E70B46B6
:10044000024641464846BDE8F08B13B54FF0000028
:100450004FF00001AFF30080BDE81C407047000082
:100460000FB41CB5074B06AA7B446946009005985B
:1004700000F075F90020694600F084F91CBC5DF8B5
:1004800014FB0000190300002DE9F0410E4604465C
:10049000002020622046E168884730B3252805D037
:1004A000D4E901219047206A401CF2E7E168204628
:1004B00000278847050018D0A5F14100192802D867
:1004C00020354FF400673246294620462760FFF763
:1004D000B5FE40B1012804D0F61D26F00706083607
:1004E000D8E7361DD6E72846DAE7206ABDE8F0816E
:1004F0002DE9F0410646002410687529314616A5FD
:1005000010D0AFF30080002802DA404213A507E0C4
:1005100031688A0701D512A502E0490704D511A563
:10052000012401E0AFF3008000210A2206F1240734
:1005300009E0B0FBF2FCB0FBF2F302FB1C00303030
:1005400078541846491C0028F3D123462A463046E1
:10055000BDE8F04100F0A5B8000000002D0000004B
:100560002B0000002000000010B5431C02E010F832
:10057000011B71B18107FAD14FF0013202C88C1A08
:100580008C4314EAC211F9D0C01A0A0603D0C01E67
:1005900010BDC01A10BD0A0401D0801E10BD090292
:1005A000FCD0401E10BD10B5203AC0F00B80B1E861
:1005B0001850203AA0E81850B1E81850A0E8185098
:1005C000BFF4F5AF5FEA027C24BFB1E81850A0E8A1
:1005D000185044BF18C918C0BDE810405FEA827CBB
:1005E00024BF51F8043B40F8043B08BF7047D207D2
:1005F00028BF31F8023B48BF11F8012B28BF20F873
:10060000023B48BF00F8012B70474FF0000204295D
:10061000C0F0128010F0030C00F01B80CCF1040C31
:10062000BCF1020F18BF00F8012BA8BF20F8022B65
:10063000A1EB0C0100F00DB85FEAC17C24BF00F80B
:10064000012B00F8012B48BF00F8012B70474FF039
:10065000000200B5134694469646203922BFA0E812
:100660000C50A0E80C50B1F12001BFF4F7AF09071E
:1006700028BFA0E80C5048BF0CC05DF804EB89000F
:1006800028BF40F8042B08BF704748BF20F8022B52
:1006900011F0804F18BF00F8012B7047704770476A
:1006A00070472DE9F0470D4699469246044600F101
:1006B00024080168880604D5E06921F01001216052
:1006C00000E00120A84201DD471B00E00027A169EE
:1006D0007A1902EB0900081AA0612078C00602D43A
:1006E0002046AFF30080002608E0D4E901211AF883
:1006F00006009047206A401C761C20624E45F4DBC1
:100700002078C0060AD52046AFF3008006E0D4E981
:10071000012130209047206A401C2062381EA7F13A
:100720000107F4DC07E0D4E9012118F8050090473F
:10073000206A401C2062281EA5F10105F3DC20463A
:10074000AFF300802078000602D50220BDE8F087D4
:100750000120FBE701694A1C02610878704700B577
:100760008FB0CDE901310021059105497944CDE9EA
:10077000031011466846FFF787FE0FB000BD00006A
:10078000E5FFFFFF0A6802F8010B0A607047754633
:1007900000F02CF8AE4605006946534620F00700ED
:1007A000854618B020B5FFF7D1FDBDE820404FF0D9
:1007B00000064FF000074FF000084FF0000B21F04B
:1007C0000701AC46ACE8C009ACE8C009ACE8C00918
:1007D000ACE8C0098D46704710B50446AFF3008001
:1007E0002046BDE81040FFF73DBD000000487047BF
:1007F0004C9B002001491820ABBEFEE726000200FA
:100800007047000001221021014800F043BC0000A5
:100810000000024000221021014800F03BBC000013
:10082000000002407047000001221146014800F01C
:1008300031BC00000004024000220121014800F008
:1008400029BC000000040240704705F0F1BB08B568
:100850002A214843009001E000BF0846411E009154
:10086000FAD208BD10B5FFF7DDFFFFF7EDFF05F089
:1008700067FA044605F0ECFA204310BD2DE9FC416F
:100880000746002016460D4600900190FFF7C2FF74
:10089000922000F0BDF806226946122000F09AF876
:1008A000FFF7B0FF9DF801009DF80010000200B2B4
:1008B000084300EE100A464CB8EEC00AD4ED000A18
:1008C00020EE200A85ED000A9DF803009DF8021035
:1008D000000200B2084300EE100AD4ED000AB8EEA0
:1008E000C00A20EE200A85ED010A9DF805009DF85A
:1008F0000410000200B2084300EE100AB8EEC00A6D
:1009000020EE200A85ED020AFFF796FF08226946CD
:10091000002000F05FF8FFF787FF9DF800000F2828
:1009200030D19DF803009DF80210000200B2084388
:1009300000EE100AD4ED010AB8EEC00A20EE200A3B
:1009400087ED000A9DF805009DF80410000200B232
:10095000084300EE100AD4ED010AB8EEC00A20EEFA
:10096000200A87ED010A9DF807009DF80610000295
:1009700000B2084300EE100AB8EEC00A20EE200ACA
:1009800087ED020AFFF746FFA22000F041F802229D
:100990006946222000F01EF8FFF734FF9DF80000A2
:1009A0009DF80110C00040EA5110B0F5806F01DBE6
:1009B000A0F5006000EE100AB4EE001AF8EEC00ACE
:1009C000B3EE070A00EE810A86ED000ABDE8FC815D
:1009D0000800002070B514460D4640F0800000F07D
:1009E00017F806E0552000F013F8641E05F8010B17
:1009F000E4B2002CF6D170BD10B50C4640F080007A
:100A000000F006F8552000F003F8207010BD00003B
:100A100001B582B04FF47A700090012301AA02A9B7
:100A2000024801F097FC9DF804000EBDF001002083
:100A300010B50C46FFF7ECFF2046BDE81040FFF76D
:100A4000E7BFFEE7002070470020704710B5002286
:100A50000449054803F0A6FD0449034803F095FD49
:100A6000002010BD488C00206C7F002048840020AE
:100A700010B50146034803F088FD024803F05EFD0F
:100A8000002010BD6C7F002000207047094A10B57F
:100A9000D2F8BC22D2F814220AB1012010BD0A46B5
:100AA0000146044803F07EFDBDE81040014803F014
:100AB000F3BD00006C7F0020014800F09FB80000EB
:100AC0006803002001681823CAB2103AB2FBF3F29F
:100AD000054B6FF30901032A9B5CC36500D9091D0F
:100AE0008165084670470000386B000810B5014664
:100AF00000208B698A6A4FF0C07453B1B3F5005F70
:100B000015D072B1012A0CD0022A0AD0032A09D1C9
:100B100004E01AB1012A06D0022A03D1C96AC90128
:100B200000D5012010BDC96AA142FAD010BD002A2B
:100B3000F7D0012AF2D0022AF3D0032AF3D010BD55
:100B4000704772B6FEE72DE9F0410446876D00F06C
:100B5000A7FA064694F835000025022806D0802022
:100B6000606584F834500120BDE8F0812068016898
:100B700021F0160101602068416921F08001416186
:100B8000206C08B9A06C20B12068016821F0080130
:100B900001602068016821F0010101600CE000F0B3
:100BA0007FFA801B052807D920206065032084F880
:100BB000350084F83450D7E720680068C007EED1CC
:100BC00094F85C103F208840B860012084F835001C
:100BD00084F834500020C7E790F83510022903D07C
:100BE0008021416501207047052180F8351000689B
:100BF000016821F001010160002070472DE9F843F0
:100C000004464FF00009CDF8009063484FF41651A8
:100C1000A56D0068B0FBF1F72E6894F85C10082011
:100C200000FA01F131420FD021680A6852070BD552
:100C30000A6822F004020A6094F85C108840A860F8
:100C4000606D40F00100606594F85C104FF00108A1
:100C500008FA01F0304208D021684969090604D534
:100C6000A860606D40F00200606594F85C1004209C
:100C70008840304208D021680968890704D5A860F7
:100C8000606D40F00400606594F85C1010208840AE
:100C9000304218D021680968090714D5A860206877
:100CA0000168490304D50068000308D5A16C07E07A
:100CB0000168C90503D4016821F008010160216CB5
:100CC00009B12046884794F85C10202088403042C3
:100CD00031D021680968C9062DD5A86094F835007F
:100CE00005282068016806D0490347D5006800033D
:100CF0001DD4616C1CE021F016010160206841697F
:100D000021F080014161206C08B9A06C20B12068FD
:100D1000016821F00801016094F85C103F208840D0
:100D2000A86084F8358084F83490216D1FE0E16B71
:100D300009B120468847606D00282BD0606DC00740
:100D400014D0052084F835002068016821F00101E5
:100D500001600098401C0090B84203D820680068E9
:100D6000C007F6D184F8358084F83490E16C00290E
:100D700010D001B02046BDE8F04308470168C9051E
:100D8000D5D4016821F01001016084F8358084F821
:100D90003490CCE7BDE8F883500000202DE9F04105
:100DA000044600F07DF906465CB1022084F8350067
:100DB000002584F834502068016821F001010160A9
:100DC0000DE00120BDE8F08100F06AF9801B0528E4
:100DD00005D920206065032084F83500F2E72068FB
:100DE0000068C007F0D12268116820480140D4E9AA
:100DF00001031843D4E903363343184363691843A6
:100E0000A3691843E3691843236A18430843616AD6
:100E1000042903D1D4E90B13194308431060206857
:100E20004069666A20F0070130460E430127042816
:100E30000CD1A06A0643E06A40B12046FFF756FE97
:100E400020B14020606584F83570BAE720684661BB
:100E50002046FFF737FE94F85C203F2191408160E7
:100E6000656584F835700020ACE700003F8010F025
:100E700070B5044600F014F90546601C02D0044821
:100E80000078044400F00CF9401BA042FAD370BD76
:100E9000440000202DE9F84FDFF8BCA10022012515
:100EA00003264FF00F090AF1040BAAF1040E00BF4C
:100EB0000B6805FA02F42340A34270D10F7907F0C2
:100EC0000307012F01D0022F16D187684FEA42088D
:100ED00006FA08FC27EA0C07D1F80CC00CFA08FC4B
:100EE0004CEA070CC0F808C04768A7430C79C4F364
:100EF000001494403C4344600C79E443A4070AD0B6
:100F0000C4684FEA420C06FA0CF7BC438F6807FA34
:100F10000CF72743C7600C7904F00304022C12D1AC
:100F2000D40800EB840CDCF820405707FF0E09FAC8
:100F300007F824EA0804D1F8108008FA07F848EA0C
:100F40000408CCF8208004684FEA420C06FA0CF73B
:100F5000BC430F7907F0030707FA0CF72743076034
:100F60004C6814F4403F70D03C4C276847F48047ED
:100F70002760246822F0030704F480440094384C6E
:100F800007EB040CDCF8084897074FEA177809FAD2
:100F900008F7BC43334FB84202D1002724E054E0A5
:100FA000314FB84201D101271EE0304FB84201D184
:100FB000022719E02E4FB84201D1032714E02D4F2C
:100FC000B84201D104270FE02B4FB84201D10527C9
:100FD0000AE02A4FB84201D1062705E0284FB8425F
:100FE00001D1072700E0082707FA08F72743CCF8C4
:100FF0000878DAF800405746D1F804C09C435FEA0D
:10100000CC2C00D51C433C60DBF800405F46D1F897
:1010100004C09C435FEA8C2C00D51C433C60DEF886
:1010200000407746D1F804C09C435FEA8C3C00D571
:101030001C433C60084F083F3C68D1F804C09C4307
:101040005FEACC3C00D51C433C60521C102AFFF4E4
:101050002FAFBDE8F88F0000083C01404438024043
:10106000003001400000024000040240000802403D
:10107000000C024000100240001402400018024020
:10108000001C0240426921EA02030A4043EA02418D
:10109000816170470AB1816170470904FBE7000074
:1010A00001488068704700004400002002488168C1
:1010B0000278114481607047440000200B4810B54D
:1010C000016841F400710160016841F480610160D0
:1010D000016841F480710160032000F09FF80F2047
:1010E00000F006F800F050F8002010BD003C02406F
:1010F00030B505461F4887B00024016841F0200143
:101100000160006806A900F02000009001A800F02E
:101110004DFE0498A8B100F06FFE40001649174A32
:10112000B0FBF1F11648491E026040F2E732C0E917
:101130000324C0E90114846101F078FA040003D0AB
:1011400015E000F059FEE9E70D4801F09DFA0400B2
:101150000DD1372000F034F8102D07D20022294697
:10116000372000F03BF80748056000E0012407B095
:10117000204630BD4038024040420F00001400407D
:1011800034060020480000200C4882B0016841F479
:1011900080410160006800F4804000900748001F13
:1011A000016841F0805101600068002200F0805029
:1011B00000900F21901E02B000F010B84438024099
:1011C000002809DB00F01F02012191404009800046
:1011D00000F1E020C0F8001170470000F0B40E4BA1
:1011E0001B680C46C3F30223C3F10705042D00D985
:1011F0000425191D072901D2002300E0DB1E01266A
:1012000006FA05F1491E214099409E40761E16407F
:101210003143F0BC04F083BD0CED00E0064900F062
:10122000070208684FF6FF03184040EA0220034A0D
:1012300010430860704700000CED00E00000FA0564
:1012400070470068416200207047F0B50368586A33
:1012500039B19C6A4FF4827600EB144400204D1E95
:101260000AE040EA024098620FE006EB8007DF598F
:10127000401C04EB1744C0B2A842F6D344EA024033
:101280004FF4807202EB810158500020F0BDD0F87D
:10129000E00403F09ABC01EBC10200EB8202D0F83B
:1012A000E004126A03F0EBBB01EBC10200EB820227
:1012B000D0F8E004D2F8602203F03DBCD0F8E0049E
:1012C00003F085BC0A0601F00F0101EBC10100EB40
:1012D000810101D5143101E001F51571006804F0B8
:1012E0006BBB70B504460B0601F00F0000EBC001AC
:1012F00004EB81014FF001024FF0000502D54A7561
:10130000143103E081F8555201F51571087094F815
:101310009404012808D084F89424206804F066F826
:1013200084F89454002070BD022070BD70B504464E
:1013300001F00F002279904201D9012070BD0B0607
:1013400001F00F0101EBC10104EB81014FF001023B
:101350004FF0000502D54A75143103E081F855526B
:1013600001F515718D70087094F89404012808D067
:1013700084F89424206804F0ABF984F89454002095
:1013800070BD022070BD01F00F0101EBC10100EB47
:101390008100D0F8680270472DE9F04104460F063D
:1013A00001F00F0000EBC00104EB81014FF00106DA
:1013B0004FF0000502D54E75143103E081F8555207
:1013C00001F51571C2F30A0208708A600B714A7840
:1013D00002B14883022B00D14D7194F89404012886
:1013E00009D084F89464206803F04EFF284684F8FE
:1013F0009454BDE8F0810220FBE710B501F00F0422
:1014000004EBC40100EB8101C1E998230023C1F87A
:10141000683281F8553281F85442837901F51571AB
:10142000012B00D1CA618279006804F0A9F900207B
:1014300010BD70B504460D4601F00F0021798842B9
:1014400001D9012070BD29064FF000064FF00102BE
:1014500006D500EBC00104EB81014A75143107E0A9
:1014600005EBC50104EB810181F8556201F51571A9
:101470008A70087094F89404012807D084F89424A2
:10148000206804F051F9280702D007E0022070BD5F
:10149000A17904F29C42206804F0EEF884F8946488
:1014A000002070BD10B501F00F0404EBC40100EB87
:1014B0008101C1E9082300238B6201234B7501F8E8
:1014C000144F8379012B00D1CA618279006804F03E
:1014D00057F9002010BD00002DE9FC5F05680446A7
:1014E000284604F005FB00287DD1206804F02CFB81
:1014F000002878D0D5F80808C0F30D20C4F8D4042B
:10150000206804F021FB800704D52068416901F0C0
:1015100002014161206804F017FBC10604F29C40FF
:10152000009034D52068816921F0100181612F6A13
:1015300007F00F0000EBC00004EB8006C7F3434048
:1015400006F51576022802D0062811D01AE047F6D3
:10155000F070074216D0C7F30A1217462846F16802
:1015600004F0F6FAF0683844F0607069384408E036
:1015700008222846009904F0EBFA7069C7F30A11B3
:10158000084470612068816941F010018161206820
:1015900004F0DAFA00034FF0080B4FF0000A4FF0A6
:1015A00001097CD50026206804F0ADFA074674E0F6
:1015B000F80770D0F1B2206804F0BEFA8046C00788
:1015C00007D005EB4611C1F8089B3146204601F0D3
:1015D000B1FE5FEA087024D505EB4611C1F808BBDF
:1015E0002068016C00E023E200EB46100191D0F886
:1015F000082BFB4B994205D9110403D54FF4004148
:10160000C0F8081B204600F0F6FAF5490198884218
:1016100007D9A079012804D120680121009A04F09B
:101620002BF85FEAC86004D505EB46111020C1F81D
:10163000080B5FEA88701DD56869000605D5D5F8E6
:10164000040840F48061C5F8041806EBC60004EBFA
:10165000800090F8571200F51570012905D180F827
:1016600003A0F1B2204600F0E9F905EB4611022093
:10167000C1F8080B5FEA886004D505EB461020210D
:10168000C0F8081B5FEA884005D505EB46104FF40B
:101690000051C0F8081B7F08761C002F88D12068F5
:1016A00004F052FA40036ED5206804F025FA07468C
:1016B000002666E0F80762D0F1B2206804F02AFA4A
:1016C0008046C00723D006F00F01D5F8342809FA68
:1016D00001F18A43C5F8342805EB4611C1F8089991
:1016E000A07901280FD106EBC60004EB8000D0E9F9
:1016F00007211144016236B9606A20B920680121CE
:10170000009A03F0B9FFF1B22046FFF7C4FD5FEA8B
:10171000087003D505EB4611C1F808B95FEAC86047
:1017200004D505EB46111020C1F808095FEA4860AE
:1017300004D505EB46104021C0F808195FEA88700F
:1017400016D53146284604F0A8F906EBC60004EB8E
:101750008000C17D1430012905D180F803A0F1B2C9
:10176000204600F067F905EB46110220C1F8080990
:101770005FEA086003D53146204601F041FE7F084C
:10178000761C002F96D1206804F0DEF9002811DACB
:10179000D5F8040820F00101C5F8041894F8CC0429
:1017A00001282BD0204600F00BFA2068416901F097
:1017B00000414161206804F0C7F900050BD5D5F858
:1017C0000808C00702D0204600F03EFA20684169B0
:1017D00001F400614161206804F0B6F9C00467D5E6
:1017E000D5F8040820F00100C5F80408102120688D
:1017F00004F053F900214FF67F3220E084F8CCA4A6
:1018000000212046FFF71CFDCFE700BF05EB41108C
:10181000C0F80829D0F8003923F40013C0F80039C3
:10182000C0F8082BD0F8003B23F40013C0F8003BAD
:10183000D0F8003B43F00063C0F8003B491C20791E
:101840008842E3D8D5F81C0840F00111C5F81C18EF
:10185000E07B002828460DD0D0F8840840F00B012A
:10186000C5F88418D5F8440840F00B012846C5F89F
:1018700044180DE0D0F8140842F22B010843C5F8D3
:101880001408D5F8100840F00B012846C5F81018C8
:10189000D0F8000820F4FE61C5F80018A17920688E
:1018A000009A03F0E9FE2068416901F4805141612A
:1018B000206804F049F9800415D5206803F024FD60
:1018C000206804F008F9E07100F090FA0146E2792E
:1018D000206804F09BF9204600F05CF9206841691B
:1018E00001F400514161206804F02EF9000707D58A
:1018F000204600F069F92068416901F00801416162
:10190000206804F021F9000616D5A86920F08001AE
:10191000A96101260DE000BF06EBC60004EB8000C4
:1019200090F85702012803D1F1B22046FFF7CAFC14
:10193000761C2079B042EFD8206804F005F9C00287
:101940001FD501264F4614E005EB4610D0F80009DC
:1019500006EBC60104EB81010A7E012A08D10028AA
:1019600006DACF75F0B240F080012046FFF7AAFCFE
:10197000761C2079B042E7D82068416901F48011D3
:101980004161206804F0E0F8800234D501204A4625
:1019900029E000BF05EB4011D1F8001B00EBC003AC
:1019A00004EB830393F85862012E1BD1002919DA46
:1019B00094F8D464C1F3004106F001068E4211D1BF
:1019C00083F85722A96941F08003AB616969090670
:1019D00008D4D5F8040840F40070C5F8040805E000
:1019E0000A30544F401C21798142D3D82068416984
:1019F00001F400114161206804F0A6F8400007D509
:101A00002046FFF744FC2068416901F080414161B4
:101A1000206804F099F840070AD5206845686807EF
:101A200002D52046FFF74AFC2068416829434160FF
:101A3000BDE8FC9FD0F8E00403F01BB9D0F8E00447
:101A400003F02BB9F8B5040005D094F89504266886
:101A5000002510B106E00120F8BD84F8945420461A
:101A600000F056F8032084F89504B6F1A04F00D199
:101A7000A571206803F0FAFD207C8DF8000094E841
:101A80000F0003F04FFC0226B8BB0021206804F0D1
:101A90007EF890BB002001270DE000BF00EBC001E5
:101AA00004EB81014F750875C8850D76CD610D6217
:101AB000401CC0B24D6221798142EFD8002011E074
:101AC00000EBC00104EB810181F8555281F854020A
:101AD00081F85852C1F85C52C1F86052401CC0B243
:101AE000C1F8645221798142EAD8207C8DF8000047
:101AF00094E80F0003F0FCFC10B184F89564AAE7A9
:101B0000657484F89574206803F0E4FC0020F8BD47
:101B100010B586B0044614216846FEF798FD20688B
:101B2000B0F1A04F2FD119480021026842F0010204
:101B30000260006800F0010005904FF4C050009072
:101B40000220CDE90101032003900A200490694698
:101B50000F48FFF79FF90D48001D016841F0800113
:101B600001600A481430016841F480410160006856
:101B7000002200F48040059005214320FFF72EFB52
:101B80004320FFF71DFB06B010BD000030380240B7
:101B90000000024070B50446C079012570B10228EA
:101BA00001D0FEF7CEFF2946D4F8E00403F0E4F8B4
:101BB000D4F8E004BDE8704003F098B80025F2E7DF
:101BC000D0F8E00403F0C1B8D0F8E00403F0C7B8DF
:101BD00010B5044690F8940401280AD0012084F836
:101BE00094046174206804F000F8002084F89404E0
:101BF00010BD022010BDD0F8E02400F29C41104638
:101C000003F0C6B810B50446006894F8941401298E
:101C100009D0012184F89414C168490609D5617B73
:101C2000012902D005E0022010BD816B41F4803112
:101C30008163206803F00FFF206803F03DFC002063
:101C400084F8940410BD000010B50446D0F8E004F8
:101C500003F0E0F82068D0F8001E41F00101C0F860
:101C6000001EE07A002804D00248016841F0060115
:101C7000016010BD10ED00E02DE9F0470E460500B3
:101C800065D0DFF81481D8F80000F7B200F0070043
:101C9000B04207D288F80070D8F8000000F00700C2
:101CA000B04254D128683D4C810712D5400703D576
:101CB000206840F4E05020602878000703D52068B1
:101CC00040F4604020602068A96820F0F0000843DC
:101CD00020602878C0072DD030496868083901286D
:101CE00012D0022813D0032811D0096889070029CF
:101CF0002DDA216821F0030101432160FFF7D0F9BB
:101D0000814641F2883A0EE009688903EFE70968E5
:101D10008901ECE7FFF7C4F9A0EB0901514502D9AD
:101D20000320BDE8F0872068696800F00C00B0EB84
:101D3000810FEFD1D8F80010404601F00701B14201
:101D400007D90770006800F00700B04201D00120F9
:101D5000E7E72878400705D52068E96820F4E050D7
:101D6000084320602878000706D52068296920F4F8
:101D7000604040EAC100206000F05EF82168084A37
:101D8000C1F30311515CC840064908600648006869
:101D9000FFF7AEF90020C4E7003C024008380240DB
:101DA000406B000850000020480000200F22026015
:101DB0000C4A136803F003034360136803F0F00355
:101DC0008360136803F4E053C36012684FF4E05378
:101DD00003EAD20202610448006800F007000860CC
:101DE0007047000008380240003C0240014800688B
:101DF0007047000050000020044805490068096849
:101E0000044AC1F38221515CC84070475000002051
:101E100008380240506B000804480549006809680A
:101E2000044AC1F34231515CC84070475000002061
:101E300008380240506B0008154810B5006810F0D3
:101E40000C02144813D01449042A0FD0082A0ED1CA
:101E50000F4C241F2268236802F03F025B0207D563
:101E60002068C0F38810A0FB010106E0084610BD01
:101E70002168C1F38811A1FB00010023FEF778FA65
:101E80002168C1F30141491C4900B0FBF1F010BDCC
:101E9000083802400024F40040787D012DE9F84F15
:101EA00004006ED02078DFF84C93C007A9F1040538
:101EB0004AD009F104000168C1F38101012908D069
:101EC0000068C0F3810002280AD1D9F8000040025E
:101ED00006D52868800337D560680028E1D033E054
:101EE0006068B0F5803F10D0B0F5A02F286810D002
:101EF00020F480302860286820F480202860606802
:101F0000A8B1FFF7CDF806460DE0286840F4803010
:101F1000F4E740F480202860F7E700BFFFF7C0F83F
:101F2000801B642873D828688003F7D50CE0FFF77E
:101F3000B7F8064605E000BFFFF7B2F8801B64283B
:101F4000F0D828688003F7D42078DFF8AC828007C7
:101F50004FF0000A3ED5A748001D016811F00C0F94
:101F600008D00068C0F3810002280BD1D9F8000026
:101F7000400207D42868800716D5E068012800D100
:101F800012E033E1E068B8B10120C8F80000FFF7C3
:101F900087F8064605E000BFFFF782F8801B02289D
:101FA000C0D828688007F7D52868216920F0F80094
:101FB00040EAC10028600DE0C8F800A0FFF770F803
:101FC000064604E0FFF76CF8801B02281FD828683B
:101FD0008007F7D42078000722D5864F87486169AB
:101FE000703771B101210160FFF75AF8064604E02D
:101FF000FFF756F8801B022809D838688007F7D504
:102000000EE0C0F800A0FFF74BF8064605E082E0BE
:10201000FFF746F8801B02287DD838688007F7D480
:102020002078400768D5DFF8CCB100270BF13C0BD6
:10203000DBF80000C0000BD4DBF8001041F0805149
:10204000CBF80010DBF80000012700F08050009072
:102050006B4E3068C00510D4306840F4807030603A
:10206000FFF71EF8009005E0FFF71AF80099401AF4
:10207000022850D83068C005F6D55E4EA0686C3690
:1020800001280FD00528306810D020F00100306002
:10209000306820F004003060A068B8B1FFF700F8A5
:1020A00000900FE0306840F00100F4E740F00400D9
:1020B0003060F7E7FEF7F4FF0099411A41F28830EB
:1020C000814266D830688007F4D50EE0FEF7E8FF5D
:1020D000009007E0FEF7E4FF0099411A41F28830D2
:1020E000814256D830688007F4D42FB1DBF8001055
:1020F00021F08051CBF80010A069C8B33D49091DFB
:102100000968C1F3810102294AD00228504607D04C
:10211000C8F8600000E03CE0FEF7C2FF04463BE088
:102120004746C8F86000FEF7BBFF064605E000BF63
:10213000FEF7B6FF801B02282BD828688001F7D451
:10214000D4E907010843A16A2E4A490802EB01417C
:10215000626A41EA8211084394F82C1040EA016156
:10216000C9F8001001203866FEF79AFF044606E021
:102170003EE000BFFEF794FF001B022809D8286844
:102180008001F7D534E000BFFEF78AFF001B02286C
:1021900002D90320BDE8F88F28688001F4D427E035
:1021A0000128F7D0D9F80000E26900F480019142DB
:1021B0001CD1226A00F03F01914217D147F6C0714D
:1021C000626A0140B1EB821F10D1A26A4FF0FF3367
:1021D00000F4403103EB5202B1EB024F06D194F808
:1021E0002C1000F07060B0EB016F01D00120D1E73E
:1021F0000020CFE70438024000004742800E4742EB
:10220000007000400000FFFF70B5040009D0606A54
:10221000002540B125616561A56294F8510040B187
:102220000CE0012070BD6068B0F5827FF4D0E561FC
:10223000F2E784F85050204600F044F8022084F879
:1022400051002068016821F040010160A0882189C7
:1022500000F4827001F404410843A18901F4006193
:102260000843217C01F002010843217D01F00101B6
:102270000843218B01F400710843217F01F03801EC
:10228000084394F8201001F080010843218D01F4E7
:102290000051084321680860A069042101EA104048
:1022A00094F8241001F01001084321684860206868
:1022B000C16921F40061C1616565012084F85100A4
:1022C000002070BDF0B587B0044614216846FEF7C3
:1022D000BEF91C492068884232D11B48002401689D
:1022E00041F480510160006800F480500590164868
:1022F0001438016841F002010160016801F0020137
:102300000591016841F0010101600068022500F0BB
:10231000010005901820CDE9000502AA0326052733
:1023200082E8D00069460948FEF7B4FD8020CDE977
:10233000000502AA694682E8D0000548FEF7AAFD1A
:1023400007B0F0BD003001404438024000040240B4
:10235000000002402DE9FF4F81B01D469346044620
:102360004FF001090E9EFEF79BFE074694F85100C0
:102370006168012806D0B1F5827F3CD1A168C9BB54
:10238000042838D10298002871D0BBF1000FFBD08F
:10239000002DF9D094F8500001282CD04FF0010AFC
:1023A00084F850A094F85100042802D0052084F845
:1023B00051004FF00008C4F85480C4F838B0E587E5
:1023C000A58702992163E586A586C4F84080C4F8F4
:1023D000448020680168490603D4016841F0400147
:1023E0000160E068B0F5006F606808D0F0B3012DBF
:1023F00049D081E0FFE7022005B0BDE8F08F08B1C9
:10240000012D39D1206B21680088C860206B801CA9
:102410002063E08E401EE0862EE0206881688907F8
:102420000FD5E18E69B1B9F1010F0AD1216B09888D
:10243000C160206B801C2063E08E401EE0864FF060
:10244000000920688168C9070CD0E18F51B1C068CC
:10245000A16B0880A06B801CA063E08F401EE0870A
:102460004FF00109FEF71CFEC01B01E00BE067E026
:10247000B04201D3701C50D1E08E0028CDD1E08F46
:102480000028CAD13EE0206B216800780873206BD9
:10249000401C2063E08E401EE0862DE020688168AD
:1024A00089070FD5E18E69B1B9F1010F0AD1216B0E
:1024B00009780173206B401C2063E08E401EE0868B
:1024C0004FF0000920688168C9070CD0E18F51B135
:1024D000C068A16B0870A06B401CA063E08F401E19
:1024E000E0874FF00109FEF7DBFDC01BB04202D3CD
:1024F000701C01D011E086B1E08E0028CED1E08FB3
:102500000028CBD13A463146204601F0A9F850B117
:102510002020606584F8508012E084F851A084F88F
:102520005080032068E7A06818B92068C1688068F7
:10253000009084F851A084F85080606D0028F1D09C
:10254000012059E77047704710B590F83C20012AE8
:1025500022D0012280F83C20CA688C6822F44072A4
:1025600022434C6822F4806222430C6822F4006209
:1025700022430C6922F4805222434C6922F4005217
:102580002243C969002322F480420A4301684A6455
:1025900080F83C30002010BD022010BD70B590F8CE
:1025A0003C20012A32D0012480F83C40022280F8ED
:1025B0003D2003685A689D6822F070060A6832431D
:1025C0005A60134B02689A4214D0B2F1804F11D076
:1025D000104B9A420ED0104B9A420BD00F4B9A429E
:1025E00008D00F4B9A4205D00E4B9A4202D00E4BA8
:1025F0009A4204D1496825F080031943916080F81C
:102600003D40002180F83C10084670BD022070BD9E
:10261000000001400004004000080040000C0040A1
:1026200000040140004001400018004010B50400C3
:1026300003D094F83D0010B107E0012010BD002048
:1026400084F83C00204600F01EF8022084F83D008B
:10265000211D206801F050FB012084F8460084F819
:102660003E0084F83F0084F8400084F8410084F87C
:10267000420084F8430084F8440084F8450084F85C
:102680003D00002010BD704790F83D10012901D099
:1026900001207047022180F83D100168CA6842F0AD
:1026A0000102CA6000681149884214D0B0F1804F1D
:1026B00011D00F4988420ED00E4988420BD00E49E6
:1026C000884208D00D49884205D00D49884202D081
:1026D0000C49884204D1816801F00701062903D022
:1026E000016841F0010101600020704700000140D5
:1026F0000004004000080040000C004000040140BD
:10270000004001400018004070472DE9F0410446A8
:102710000068C66805694FF00007A90713D5B1071F
:1027200011D5F91E0161012020772068806980079A
:10273000204602D0FFF7E8FF04E000F0D7F820467B
:1027400000F088F92777680716D5700714D5216837
:102750006FF004000861022020772068806910F47F
:10276000407F204602D0FFF7CFFF04E000F0BEF824
:10277000204600F06FF92777280715D5300713D5C5
:1027800021686FF008000861042020772068C06984
:102790008007204602D0FFF7B7FF04E000F0A6F85C
:1027A000204600F057F92777E80616D5F00614D52D
:1027B00021686FF010000861082020772068C06948
:1027C00010F4407F204602D0FFF79EFF04E000F0A7
:1027D0008DF8204600F03EF92777E80708D0F0078B
:1027E00006D021686FF001000861204600F098F9DA
:1027F000280608D5300606D521686FF080000861EC
:102800002046FFF79FFE680608D5700606D52168AA
:102810006FF040000861204600F08CF9A8060AD548
:10282000B00608D521686FF0200008612046BDE899
:10283000F041FFF788BEBDE8F081000070B586B0BA
:10284000044614216846FDF702FF224A216800244D
:1028500021480225914225D1016841F00101016022
:10286000016801F001010591016841F0100101606A
:102870000068012600F0100005904FF4A060009061
:10288000CDE90154CDE9034669461448FEF702FB41
:102890004FF490400090CDE90154CDE903466946DC
:1028A0000F4813E00F4A914212D1016841F4807140
:1028B00001600068694600F480700590E420009093
:1028C000CDE901540320CDE903400748FEF7E2FAC1
:1028D00006B070BD000001403038024000000240E8
:1028E000001002400004014000200240704770B513
:1028F000044690F83C0000260D4601280FD0012028
:1029000084F83C006AB1042A1DD0082A2FD00C2A72
:102910003FD00126002084F83C00304670BD0220E4
:1029200070BD206801F05EFA2068816941F00801FD
:1029300081612068816921F00401816120688169D9
:102940002A69114311E0206801F07CFA206881694E
:1029500041F4006181612068816921F480618161B5
:10296000206881692A6941EA02218161D2E72068F1
:1029700001F09EFA2068C16941F00801C161206838
:10298000C16921F00401C1612068C1692A6911434C
:1029900011E0206801F0C0FA2068C16941F40061CB
:1029A000C1612068C16921F48061C1612068C16989
:1029B0002A6941EA0221C161ACE710B5040003D0E5
:1029C00094F83D0010B107E0012010BD002084F80C
:1029D0003C00204600F01EF8022084F83D00211D36
:1029E000206801F089F9012084F8460084F83E004F
:1029F00084F83F0084F8400084F8410084F84200E5
:102A000084F8430084F8440084F8450084F83D00CD
:102A1000002010BD08B50C4A01680C48914207D14E
:102A2000016841F001010160006800F0010009E067
:102A3000074A914207D1016841F002010160006834
:102A400000F00200009008BD000001404438024040
:102A5000000401407047000010B50446022249B14D
:102A600004290ED0082913D094F84100012816D06B
:102A7000012010BD94F83E000128F9D184F83E20D1
:102A80000FE094F83F000128F2D184F83F2008E0DD
:102A900094F840000128EBD184F8402001E084F84C
:102AA00041200122206801F08FF916492068164A5A
:102AB000884201D0904203D1436C43F40043436405
:102AC0002068884213D0B0F1804F10D00F4988425F
:102AD0000DD00F4988420AD00E49884207D0904253
:102AE00005D00D49884202D00C49884204D1816842
:102AF00001F00701062903D0016841F001010160DE
:102B0000002010BD0000014000040140000400400E
:102B100000080040000C0040004001400018004048
:102B200000680349884201D1FEF7C0BA704700002F
:102B3000001400407047704700680449884204D17F
:102B400001220349034800F0F3B9704700480040F0
:102B50000100002020030020F8B501680446086841
:102B6000CA684B6910F00F0F4FF0000559D003F001
:102B7000010602F49077374365D0C10705D0D1052F
:102B800003D5616C41F001016164410705D5D907A6
:102B900003D0616C41F002016164810705D5D9075A
:102BA00003D0616C41F004016164010707D502F0B4
:102BB0002001314303D0616C41F008016164616C14
:102BC00000293AD0800604D5900602D5204601F0AF
:102BD000F9F920684069616CC0F38010090700D4DE
:102BE00060B3204601F0C7F920684069400621D54E
:102BF0002068143050E8001F21F0400140E8001226
:102C0000002AF5D1E06BA8B172490165E06BFDF7D0
:102C1000E3FF002811D0E06B016D01B0BDE8F0408A
:102C2000084783060FD593060DD52046BDE8F8402A
:102C300001F0C8B92046FFF77FFFF8BD2046FFF737
:102C40007BFF6564F8BD266B2023012E7ED1C6066E
:102C50007CD5D6067AD508684868009048694FF058
:102C6000020640064DD5E26B106840684FF480774D
:102C70000004000C3AD0A18D814237D9E085D0699B
:102C8000B8422DD020680C3050E8001F21F480712C
:102C900040E80012002AF5D12068143050E8001FE7
:102CA00021F0010140E80012002AF5D1206814301B
:102CB00050E8001F21F0400140E80012002AF5D141
:102CC00084F84230256320680C3050E8001F21F062
:102CD000100140E80012002AF5D1E06BFDF733FF48
:102CE0006663A08DE18D401A81B206E0A18D81421C
:102CF000A8D1D069B842A5D166632046FFF71BFF73
:102D0000F8BDA08DE18D401A81B2E08D0028F7D08A
:102D10000029F5D020680C3050E8002F22F4907282
:102D200040E80027002FF5D12068143050E8002F2C
:102D300022F0010240E80027002FF5D184F842304C
:102D4000256320680C3050E8002F00E006E022F0F8
:102D5000100240E80023002BF3D1CDE705062BD568
:102D6000150629D594F841002128C9D1A068B0F5ED
:102D7000805F01D12069B0B1206A411C21622168C5
:102D800000784860E08C401E0004000CE084B7D15D
:102D90002068C16821F08001C1602068C16841F0ED
:102DA0004001C160F8BD206A0088C0F30800486097
:102DB000206A801C2062E5E74006F3D55006F1D575
:102DC000CA68204622F04002CA6084F8413000F010
:102DD000F5F8F8BD693F000870B5040004D094F818
:102DE0004100002510B106E0012070BD84F840507C
:102DF000204600F023F8242084F841002068C168B0
:102E000021F40051C160204601F03EF920680169BB
:102E100021F4904101612068416921F02A0141615A
:102E20002068C16841F40051C1606564202084F8C5
:102E3000410084F842006563002070BDF0B587B0A2
:102E4000064614216846FDF702FC324F3068002523
:102E50003149022203230724B8421CD12E481430E2
:102E6000066846F010060660006800F01000059045
:102E7000086840F0020008600868694600F0020037
:102E80000590C0208DE82500CDE903342348FEF7E6
:102E900001F807B0F0BD224FB842FAD11E481030F9
:102EA000076847F480270760006800F480200590D9
:102EB000086840F0040008600868694600F00400F3
:102EC00005904FF440608DE82500CDE903341548A6
:102ED000FDF7E0FF154C144820604FF00060C4E996
:102EE00001054014C4E903506561A561E5612562EF
:102EF00020466562FDF752FF08B1FDF722FEF4633C
:102F0000002205212720A663FEF768F92720FEF797
:102F100057F9BEE70010014030380240000402407B
:102F2000004800400008024028600240680300207A
:102F300090F84230202B01D00220704721B11AB105
:102F40000023036301F026B90120704710B5006823
:102F50001649884228D11648014602784B7815490F
:102F600032B18B54521CD2B20270192A06D013E02F
:102F70000F2B11D10B70012101700DE000220270A6
:102F800008780F2808D1087E18B1042801D0082835
:102F900002D1084800F0B2FA05490122BDE810400C
:102FA000491C0548FFF7C4BF10BD000000480040A1
:102FB00000000020D4010020200300207047FEE71D
:102FC000F0B500230A24302537261F4611E000BF44
:102FD000B4EB107F02D905EB107C01E006EB107C0E
:102FE00001F813C001EB430C00015B1C8CF801706D
:102FF000DBB29342ECD3F0BD2DE9F04186B0142151
:103000006846FDF724FB35480024016841F00201C1
:103010000160016801F002010591016841F00101C0
:103020000160016801F001010591016841F00401AE
:103030000160016801F004010591016841F48071AB
:103040000160016801F480710591016841F080011F
:103050000160016801F080010591016841F01001F3
:10306000016000681E4E00F01000059000224FF431
:1030700080513046FEF70EF801224FF44061304691
:10308000FEF708F8174F012210213846FEF702F824
:10309000DFF85480012211464046FDF7FBFF4FF454
:1030A000E05000900125CDE9015469463046039473
:1030B000FDF7F0FE10200090CDE901546946384636
:1030C0000394FDF7E7FE0095CDE9015469464046BB
:1030D0000394FDF7DFFE06B0BDE8F0813038024012
:1030E000001C024000000240000402400F4810B5DE
:1030F0000D4901604FF4827141600021022281601C
:10310000C0E9031201224261520282612022C0E919
:103110000721416281620A21C162FFF775F8002828
:1031200001D072B6FEE710BD00300140F001002072
:1031300010B592B000240F941C2168461094FDF73E
:1031400086FA202107A8FDF782FA2C482A49016057
:10315000A721C0E9011444F61F61C0E903144461CA
:103160008461FFF72AFC08B172B6FEE70F940FA93D
:1031700022481094FFF712FA08B172B6FEE76020F9
:10318000CDE9000402940394049405940022694656
:103190001A480694FFF7ABFB08B172B6FEE70422AB
:1031A00069461648FFF7A3FB08B172B6FEE708228E
:1031B00069461248FFF79BFB08B172B6FEE70C2286
:1031C00069460E48FFF793FB08B172B6FEE7079415
:1031D000089409944FF400500A94CDE90B4007A9D4
:1031E00006480E94FFF7B0F908B172B6FEE703483F
:1031F000FFF724FB12B010BD000001404802002080
:1032000010B592B000240F941C2168461094FDF76D
:103210001EFA202107A8FDF71AFA2C482A49016056
:10322000A721C0E9011444F61F61C0E903144461F9
:103230008461FFF7C2FB08B172B6FEE70F940FA9D5
:1032400022481094FFF7AAF908B172B6FEE7602091
:10325000CDE9000402940394049405940022694685
:103260001A480694FFF743FB08B172B6FEE7042242
:1032700069461648FFF73BFB08B172B6FEE7082225
:1032800069461248FFF733FB08B172B6FEE70C221D
:1032900069460E48FFF72BFB08B172B6FEE70794AC
:1032A000089409944FF400500A94CDE90B4007A903
:1032B00006480E94FFF748F908B172B6FEE70348D6
:1032C000FFF7BCFA12B010BD0004014090020020CC
:1032D00010B500220F49104801F0ACFB08B1FDF712
:1032E00030FC0E490C4801F0C1FD08B1FDF729FC86
:1032F0000B49094801F03EF908B1FDF722FC0648E8
:1033000001F038FE002803D0BDE81040FDF719BCDD
:1033100010BD0000BC0000206C7F00207801002060
:103320000C010020FEE7FEE70148FEF7D5B80000DB
:10333000689600202DE9F04103680D4604461E6C96
:1033400003EB4511D1F8080B94F806E04FF4004761
:103350004FF0200C04F29C42BEF1010F09D0DFF8BF
:1033600098E0764539D1020432D500BFC1F8087B18
:103370003FE0224B5FEA007E04D59E4239D900042B
:10338000F4D436E05FEA806E02D5C1F808CB30E0B5
:1033900010F0280F2DD19E4201D90004E6D405EB90
:1033A000C50004EB8000D1F8101BD0F87432C1F3D3
:1033B0001201591AC0F8681200F51570ADB9036909
:1033C0001BB1C2681144C1600FE0012120680AE00E
:1033D00080060AD5C1F808CB07E035B9D4F86402F5
:1033E00018B90021184602F047F9E9B22046FDF766
:1033F0005BFF0020BDE8F0810A31544F0A30544F82
:103400002DE9F84F0E4601EBC60100EB8104814621
:103410000568D4E909101434884202D90120BDE8B6
:10342000F88F081AA168814200D20846C01C87089C
:1034300005EB46181BE000BFA0EB010AA068504551
:1034400000D282460AF10300870899F8060000902E
:103450001FFA8AF3F2B22846E16802F04BFCE168F9
:1034600001EB0A00E060616901EB0A006061D8F8D5
:10347000180980B2B84205D3D4E90401814201D2CF
:103480000028D9D1D4E90401884208D806F00F01F8
:1034900001208840D5F834188143C5F8341800203D
:1034A000BDE70000411E0F2905D8044901EB40008B
:1034B00030F8020C70474FF480607047B001002074
:1034C00010B5FDF7EDFD074C242160600648FDF7BF
:1034D0009CF8002020700122611CBDE810400348C8
:1034E000FFF726BD00000020B001002020030020CF
:1034F000014890F822007047B001002010B5B0F8E4
:103500000110C1F30A024B490A808278C378D208BD
:1035100042EA4312C2F30A024A80C278037992094E
:1035200042EA8302437942EA8322C2F30A028A8092
:1035300042798379520842EAC312C2F30A02CA806E
:103540008279C379120942EA0312C2F30A020A819C
:10355000C279037AD20942EA4302437A42EA432219
:10356000C2F30A024A81427A837A920842EA8312BB
:10357000C2F30A028A81827AC37A520942EAC302FA
:10358000CA818289C2F30A020A82427B837BD20803
:1035900042EA4312C2F30A024A82827BC37B920947
:1035A00042EA8302037C42EA8322C2F30A028A824D
:1035B000027C437C520842EAC312C2F30A02CA8266
:1035C000427C1209837C42EA0312C2F30A020A8394
:1035D000827CC37CD20942EA4302037D42EA432251
:1035E000C2F30A024A83027D437D920842EA8312B3
:1035F000C2F30A028A83427D837D520942EAC302F2
:10360000CA83C27DC2F3800281F82120C07DC0F34D
:10361000C00081F8200000B94AB1002081F82200E2
:10362000002803D0FDF73CFD0349486010BD012090
:10363000F4E70000B00100200000002010B5FDF705
:103640002FFD05494968401A322803D90349002053
:1036500081F8220010BD000000000020B001002011
:10366000F8B515460E460B4600920446012202218B
:1036700000F02CF8A0B9134813490068B0FBF1F032
:103680004FF47A71484300906068B0F5827F0DD1A5
:103690003346002280212046009500F017F870B1D3
:1036A000606D40F0200060650320F8BD009830B1E7
:1036B000401E009020688068C0430006F6D50020B8
:1036C000F8BD00005000002000366E012DE9F843DF
:1036D0001E46914688460446089DFDF7E1FC401BC6
:1036E000351AFDF7DDFC074626480068C0F3CB30ED
:1036F00068430AE0701C09D0FDF7D2FCC01BA84249
:103700000FD275B10098B8B3401E00902068816850
:1037100038EA010033D000214945EBD10020BDE853
:10372000F8832068416821F0E00141606068B0F5ED
:10373000827F0BD1A068B0F5004F02D0B0F5806F4A
:1037400004D12068016821F040010160A06AB0F551
:10375000005F09D12068016821F4005101602068F0
:10376000016841F400510160012084F851000020FB
:1037700084F850000320D2E7FFE70025C6E70121C7
:10378000CAE70000500000200178407841EA00209C
:103790007047000010B5234886B00024016841F04E
:1037A000100101600068142100F0100005906846C7
:1037B000FCF74DFF4FF4D44000900220CDE9010406
:1037C000032003900120049069461748FDF762FB2F
:1037D00016480068416C41F40041416400211348DF
:1037E000FFF73AF904211148FFF736F908210F488D
:1037F000FFF732F90C210D48FFF72EF940F2DC53A8
:103800001946002000F04CF81946042000F048F852
:103810001946082000F044F819460C2000F040F842
:1038200006B010BD303802400010024048020020AF
:103830004FF4FA7340F6C412994201D2194602E0DD
:10384000914200D91146022802D1042000F028B884
:1038500070470000114B5A42994201DA194602E0C2
:10386000914200DD1146012810D0032810D0042811
:1038700013D10C2071B14FF47A7311FB03F191FB5A
:10388000F2F101F2DC5189B200F00AB80020F1E750
:103890000820EFE740F2DC51F6E7704718FCFFFF25
:1038A00049F64042914200D91146074A126828B1B0
:1038B000042805D0082805D011647047516370476B
:1038C00091637047D1637047480200207E4F4FF4E8
:1038D0007A7BCBF1000A00BFFFF70AFE38B1002265
:1038E0004FF480513846FDF7D5FB012205E0012257
:1038F00011033846FDF7CEFB00224FF40061384635
:10390000FDF7C8FBFFF79AFEFFF7F2FD00287DD018
:103910000120FFF7C7FD0FFA80F80220FFF7C2FD74
:1039200006B20320FFF7BEFD04B20920FFF7BAFD7F
:1039300005B20520FFF7B6FD594602B28D4255DAB1
:10394000A6F5806630B200F131024FF0000840F277
:10395000DC59632A15D332284FF47A7210FB02F235
:1039600002DB4FF4297001E04FF4357092FBF0F068
:103970000FFA80F8884501DDD84602E0D04500DA2C
:10398000D046322018FB00F03F2190FBF1F01E30B2
:1039900001B20120FFF75EFF08F11E080FFA88F15F
:1039A0000D460320FFF756FF29460420FFF752FF7C
:1039B000A4F5806421B201F11D003B2814D34FF41B
:1039C0007A7011FB00F14FF4297091FBF0F000F2D6
:1039D000DC501FFA80F940F6C410814503D84FF43B
:1039E000FA70814500D2814649465BE00020A6F589
:1039F000806633B203F1310605460446632E0FD3C9
:103A0000322B4FF47A7013FB00F300E051E002DB3D
:103A10004FF4297001E04FF4357093FBF0F000B2E1
:103A2000A8F580631BB2002603F1310CBCF1630FD3
:103A30000DD3322B4FF47A7613FB06F602DB4FF4EC
:103A4000297301E04FF4357396FBF3F31EB28A42FB
:103A500001DA354600E03446884201DD584602E08E
:103A6000504500DA50468D4201DD0D4602E05545D5
:103A700000DA55468C4201DD0C4602E0544500DA7E
:103A800054461E3001B20120FFF7E4FE1E3529B274
:103A90000320FFF7DFFE1E3421B20420FFF7DAFE19
:103AA00040F2DC510220FFF7C3FE0A2002F0C0FA08
:103AB00012E71E210120FFF7CDFE1E210320FFF794
:103AC000C9FE1E21E9E70000001C0240FFF700FCD0
:103AD0004FF4FA6002F0ACFA154F164C0EA54FF4F5
:103AE00080664FF4FA7831463846FDF7CBFA94F801
:103AF0009C0203280CD1D4F8BC0248B1D0F81402BF
:103B000030B92846FCF730FD81B22846FCF7BEFFED
:103B1000404602F08DFAE6E742494E474F212055D4
:103B2000534220495320414C495645210D0A00007B
:103B3000001C02406C7F00202DED028BA4B02E4CA7
:103B400002E0322002F074FAFCF78CFE0028F8D173
:103B50002A4D9FED2B8AA5F10C062849294AA1F18F
:103B60000C00FCF78BFED6ED021A95ED001AD5ED90
:103B7000010A95ED020A61EE881A21EE081A60EE3C
:103B8000880A20EE080AFDEEE11ABDEEC11AFDEE2C
:103B9000E00ABDEEC00ACDED001A8DED011ACDEDA3
:103BA000020A8DED030A96ED010A17A104A820EE82
:103BB000080ABDEEC00A10EE103A96ED000A20EE9B
:103BC000080ABDEEC00A10EE102AFCF749FC94F872
:103BD0009C0203280CD1D4F8BC0248B1D0F81402DE
:103BE00030B904A8FCF7C0FC81B204A8FCF74EFF72
:103BF000022002F01DFAB0E76C7F0020D403002001
:103C000000007A444000002025642C25642C2564A3
:103C10002C25642C25642C25640A000010B5502046
:103C200080F31188BFF34F8FBFF36F8F02F08CFECC
:103C300018B104494FF080500860002080F31188CB
:103C400010BD000004ED00E030B593B030216846AF
:103C5000FCF7FDFC14210CA8FCF7F9FC1D4800251D
:103C6000016841F080510160006800F080501190BF
:103C70001948016841F4804101600068022400F4A1
:103C80008040119001200090000401908001CDE956
:103C9000064006200890A820CDE9090407200B90D3
:103CA0006846FEF7FBF808B172B6FEE70CA90F20D4
:103CB00081E831004FF4A0500F904FF480501090E5
:103CC00005210CA8FDF7D8FF002801D072B6FEE749
:103CD00013B030BD40380240007000400248016817
:103CE00041F470010160704788ED00E00148FEF783
:103CF0000CBD000034060020F0B50268274B284DAB
:103D0000284E294F294C4FF0804C984209D06045ED
:103D100007D0A84205D0B04203D0B84201D0A0429B
:103D200004D122F0700E4A6842EA0E0298421BD07B
:103D3000604519D0A84217D0B04215D0B84213D070
:103D4000A04211D01A4DA8420ED01A4DA8420BD055
:103D5000194DA84208D0194DA84205D0184DA842C7
:103D600002D0184DA84203D122F44075CA682A43F4
:103D70004D6922F080022A438D68C5620D68856214
:103D8000984201D0A04201D109690163016841F064
:103D900004010160012141610260F0BD00000140A9
:103DA0000004004000080040000C004000040140F6
:103DB000004001400044014000480140001800401C
:103DC000001C00400020004010B501F01F0301213D
:103DD000046A99408C430462016A9A40114301626B
:103DE00010BD0000F0B5036A026A22F0010202620F
:103DF00042688469124E24F073050C682C4323F04A
:103E000002058B682B430D4DA84201D0B04205D16D
:103E100023F00807CB683B4323F00403A84201D0FA
:103E2000B04205D14D6922F4407215438A692A4394
:103E300042608461496841630362F0BD0000014053
:103E400000040140F0B5026A036A23F01003036224
:103E5000436884690D6824F4E64444EA05248D68C7
:103E600022F0200242EA05120F4D104EA84201D066
:103E7000B04206D1CF6822F0800242EA071222F057
:103E80004002A84201D0B04207D14D6923F44063FB
:103E900043EA85038D6943EA850343608461496889
:103EA00081630262F0BD0000000001400004014097
:103EB000F0B5026A036A23F4807303624368C4693D
:103EC00022F4007224F073050C68124E2C438D68A6
:103ED00042EA05220E4DA84201D0B04206D1CF6879
:103EE00022F4006242EA072222F48062A84201D052
:103EF000B04207D14D6923F4405343EA05138D695D
:103F000043EA05134360C4614968C1630262F0BDBE
:103F1000000001400004014030B5046A026A22F446
:103F2000805202624268C3690D6823F4E64343EAA3
:103F300005238D6824F4005444EA0534084DA84252
:103F400002D0084DA84204D14D6922F4804242EAD1
:103F500085124260C36149680164046230BD00009B
:103F6000000001400004014010B5806B0021C185B4
:103F7000FEF7E2FD10BD01680C3151E8002F22F47C
:103F8000907241E80023002BF5D10168143151E80B
:103F9000002F22F0010241E80023002BF5D1016B34
:103FA000012909D101680C3151E8002F22F01002DB
:103FB00041E80023002BF5D1202180F84210002198
:103FC0000163704708B590F84210222901D0022001
:103FD00008BD82684FF480539A4201D1016921B132
:103FE000816A9A421BD04AB10AE00268816A52682B
:103FF000C2F308020A80816A891C08E0026972B172
:104000000268526802F07F020A70816A491C81626C
:10401000C18D491E0904090CC18503D01BE002684B
:104020005268F1E70168CA6822F02002CA6001689C
:10403000CA6822F48072CA6001684A6922F00102EB
:104040004A61202180F8421000214163026B012A5D
:1040500003D0FEF77BFF002008BD016301680C312F
:1040600051E8002F22F0100241E80023002BF5D187
:1040700001680A68D20602D50A6849680091818DF4
:10408000FEF759FDE7E7000070B5044600680169D6
:10409000E26821F44051114301612169A068E2699D
:1040A00008436169114308432168CA6849F20C63F7
:1040B0009A430243CA6020684169A26921F44071B1
:1040C0001143416131492068884202D03049884219
:1040D00002D1FDF7A1FE01E0FDF78EFEE2690023AB
:1040E000192164253226B2F5004F626828D0A0FB62
:1040F0000101930F9200FCF73BF90146B0FBF5F08C
:104100006FF01802504301EB800006EB0010B0FB8B
:10411000F5F000F0F002B1FBF5F002EB0012B1FB9C
:10412000F5F06FF01803584301EB800006EB001028
:10413000B0FBF5F000F00F0021681044886070BDFE
:10414000A0FB010192185B41FCF712F90146B0FB9C
:10415000F5F00201B1FBF5F06FF01803584301EBE5
:10416000800006EBC000B0FBF5F000F0F80002EBB9
:104170004002B1FBF5F0584301EB800006EBC000B4
:10418000B0FBF5F000F00700D6E70000001001409A
:104190000014014081628285C28500214164222190
:1041A00080F84210016921B10168CA6842F4807246
:1041B000CA6001684A6942F001024A610068C16848
:1041C00041F02001C1600020704700000148FEF767
:1041D000C3BC0000200300202DE9F0410C46D0F8BC
:1041E000D412D0F8C82200EB8101D1F8C01229B353
:1041F00004F00F0606EB860300EB830500276B69CE
:104200004BB106EBC60602EB8602D269B3FBF2F6AF
:1042100002FB1632A2B1C1F81472D0F8D42200EB1E
:104220008200D0F8C40203692BB1D1F808022246FB
:1042300001F5047198470020BDE8F0810320FBE7F9
:1042400000231A4621466F6100F0F1FDF3E770B5D7
:104250000546D0F8D40205EB8000D0F8C04294B1F6
:10426000284600F0C3FCC4F80C02D5F8D412D4F8E8
:10427000040205EB8101D1F8C412CA6804F5037188
:104280009047002070BD032070BD000070B5234D25
:104290000446297800F0EAFB2878002600F00F0099
:1042A00000EB800004EB800080F8236069782046F2
:1042B00000F0DCFB687800F00F0000EB800004EBFE
:1042C000800080F86361A978204600F0CFFBA878D1
:1042D00000F00F0000EB800004EB800080F823600A
:1042E000C661D4F8D40204EB8000D0F8C01299B1B2
:1042F000D0F8C40240688047D4F8D40204EB8000B0
:10430000D0F8C00200F0BAFFD4F8D40204EB800069
:10431000C0F8C062C4F8BC62002070BD2401002057
:1043200010B5D0F8D41200EB8100D0F8C04284B1AF
:10433000D0F8C41259B194F80002FF2807D08B6856
:1043400094F8012221469847FF2084F800020020BB
:1043500010BD032010BD00000A21018000487047F5
:104360002801002070B5064682210C4800F001FBB0
:1043700005460121094800F0FCFA0446812107485E
:1043800000F0F7FA0DB11021A971402104B1A1800C
:1043900000B1818043203080004870BD340100208E
:1043A00070B5064682210D4800F0E3FA054601216A
:1043B0000A4800F0DEFA04468121084800F0D9FAE4
:1043C0000DB11021A9714FF4007104B1A18000B1A9
:1043D000818043203080014870BD000034010020FE
:1043E00070B5064682210C4800F0C3FA054601214B
:1043F000094800F0BEFA04468121074800F0B9FAE6
:104400000DB11021A971402104B1A18000B18180BA
:1044100043203080004870BD340100202DE9F04772
:1044200004464FF40775284600F02AFF06004FF0B7
:10443000000865D02946FCF70AF9D4F8D4023E4DAD
:1044400004EB80004FF01009C0F8C062C4F8BC62F1
:10445000207C4FF4007A0127E8B340230222297818
:10446000204600F02EFC2878402300F00F0000EBDF
:10447000800004EB800080F82370022269782046D7
:1044800000F01FFC6878082300F00F0000EB8000AC
:1044900004EB8000032280F86371A978204601F0C4
:1044A0000F0101EB810104EB8101C1F81C90A97897
:1044B00000F007FCA87800F00F0000EB800004EB90
:1044C000800080F82370C6F80482D4F8D4024746EE
:1044D00004EB800000E01BE0D0F8C40206F5017692
:1044E000006880473761776132687AB1207C00B319
:1044F00040236978204600F0F0FB0020BDE8F087FB
:10450000D4F8D41204EB8101C1F8C0820220F5E78F
:10451000534602222978204600F0D3FB28785346E0
:1045200000F00F0000EB800004EB800080F82370A7
:10453000A3E75346DDE700002401002010B5D0F8C2
:10454000D41200EB8101D1F8C01259B1027C084CA1
:10455000002AD1F8042207D04023617800F0BDFB87
:10456000002010BD032010BD4FF40073F5E70000DC
:104570002401002039B1D0F8D42200EB8200C0F829
:10458000C4120020704703207047D0F8D42200EBFB
:104590008200D0F8C00218B1C0F8041200207047A1
:1045A00003207047D0F8D43200EB8300D0F8C0026B
:1045B00028B1C0F81022C0F808120020704703206C
:1045C00070472DE9FC410646D0F8D4020C4606EBB4
:1045D00080000021D0F8C0728DF80010ADF80410F2
:1045E0000D4637B1217811F060022FD0202A4BD12F
:1045F00002E00320BDE8FC81E288F2B109060DD596
:10460000D0F8C40263783946D0F808C01846E047AD
:10461000E288072A00D9072239462DE0607887F81A
:104620000002E088402800D34020C2B287F801226F
:104630003946304600F081F82BE0D0F8C4026378A8
:104640000022866821461846B04722E0607830B1E3
:1046500001281ED00A2809D00B2815D110E096F8A1
:104660009C02032810D1022201A905E096F89C02C1
:10467000032809D101226946304600F07AF808E0A3
:1046800096F89C02032804D02146304600F04AF8F0
:1046900003252846AEE7000010B5D0F8D41200EB91
:1046A0008101D1F8C02201211AB1D2F8143213B11C
:1046B00016E0032010BD0121C2F814120949D2F8F6
:1046C0001032097801F00F0404EB840400EB840439
:1046D0006361D2F81032D2F8082200F0A8FB002162
:1046E000084610BD2401002010B5D0F8B8220024DF
:1046F0005268904700B10324204610BD0020704747
:1047000000207047134610B50A46002100F0E5FA74
:10471000002010BD134610B50A46002100F087FBAB
:10472000002010BD10B50446802100F061FB20463A
:10473000BDE81040002100F05BBB10B50323C0F8BA
:104740009432C0F85421C0F858211346C0F86411BF
:104750000A46002100F0C1FA002010BD10B5052165
:10476000C0F8941200231A46194600F0B6FA002049
:1047700010BD10B50223C0F8943242618261134625
:1047800041620A46002100F052FB002010BD10B526
:104790000421C0F8941200231A46194600F047FB82
:1047A000002010BD10B50A46024903A000F00FF921
:1047B000004810BD4882002043444320436F6E668A
:1047C000696700001220088000487047DC00002064
:1047D00010B50A46024903A000F0F9F8004810BDE0
:1047E0004882002043444320496E746572666163C9
:1047F000650000000420088000487047D8000020B1
:1048000010B50A46024903A000F0E1F8004810BDC7
:104810004882002053544D6963726F656C65637400
:10482000726F6E696373000010B50A46024903A0F7
:1048300000F0CDF8004810BD4882002053544D339D
:1048400032205669727475616C20436F6D506F72BF
:104850007400000010B51A2008800A480168001D85
:104860000468001D0068081809D008220649FEF7F0
:10487000A7FB0549042210312046FEF7A1FB0248A0
:10488000801E10BD107AFF1FF2000020F8B504460C
:104890000020ADF8000048880D46010A08295FD2C3
:1048A000DFE801F05E0409175E5E3C45D4F8B412FF
:1048B000207C0A6819E0207C02260028D4F8B8027F
:1048C00005D0C16A684688470146467039E0816A6A
:1048D000F8E7C0B2062843D2DFE800F0030A10145C
:1048E000181CD4F8B402426805E0694690471CE001
:1048F000D4F8B402826892B3207CF6E7D4F8B4020C
:10490000C268F8E7D4F8B4020269F4E7D4F8B40254
:104910004269F0E7D4F8B4028269ECE7207CF0B990
:10492000D4F8B802416B68468847014609E0207C0C
:10493000A8B9D4F8B802016B684688470146072039
:104940004870EA888AB1BDF8000040B1824200D9BF
:104950000246ADF800202046FFF70BFFF8BDFFE749
:1049600029462046FFF7DEFEF8E72046FFF70FFF57
:10497000F4E778B50E4642880178002504468A425D
:1049800012D9ADF800100AE0694600F019F8417834
:10499000052904D181780546B14205D000256188FA
:1049A000BDF800209142EFD8284678BD014600208E
:1049B00002E0401CC0B2491C0A78002AF9D17047B5
:1049C0000A8803781A440A8001780844704770B551
:1049D00016460D46002820D00446FFF7E7FF0221C7
:1049E00001EB40014FF40070814204D82046FFF7EC
:1049F000DDFF4000801C3080307828700320687014
:104A00000220002206E02954401CC0B22A54401C57
:104A1000C0B2641C21780029F5D170BD01004FF0AF
:104A2000000004D0012901D0022901D003207047E1
:104A30000120704778B10023C0F8B832C0F8C43202
:104A4000C0F8D03209B1C0F8B412012180F89C122C
:104A5000027000F0CFB80320704710B5D0F8C8023C
:104A6000FCF764FCBDE81040FFF7D8BF10B5D0F8E4
:104A7000C802FCF736FCBDE81040FFF7CFBF70B5A9
:104A80000446002521B194F89C02032846D050E04A
:104A9000D4F8941204F11400022939D181894268B2
:104AA0008A420AD9511A416082890169114401611F
:104AB00042682046FFF72EFE0FE0914214D10068B5
:104AC000884211D3D4F8981288420DD200221146A0
:104AD0002046FFF71FFEC4F8985200231A461946D5
:104AE000204600F0FAF813E094F89C02032808D15D
:104AF000D4F8B802C16821B1C4F8D452C1682046C4
:104B000088478021204600F073F92046FFF726FEF3
:104B100094F8A00268B184F8A0520AE0D4F8B80270
:104B2000426932B1C4F8D452426920469047002805
:104B300000D1002070BD10B50446002221B194F8C8
:104B40009C02032834D03EE0D4F8941204F5AA70F5
:104B5000032938D1818943688B420ED9591A4160A3
:104B6000828901691144016142688089824200D8CA
:104B700002462046FFF7C6FD25E094F8AA0210F091
:104B80001F0003D0012802D0022800D0002294F890
:104B90009C02032808D1D4F8B802016921B1C4F8F5
:104BA000D4220169204688472046FFF7F0FD0AE03D
:104BB000D4F8B802836933B1C4F8D422826920469C
:104BC0009047002800D1002010BD0020704710B58C
:104BD0000024012180F89C12D0F8B82222B152683A
:104BE0000179904700B10324204610BDD0F8C802D7
:104BF000FCF7C9BB10B5017839BB15490222C1F8D1
:104C0000E004C0F8C8124FF0A0400860042008710A
:104C1000CA71002088714A728872C87208738873DA
:104C2000C8730846FCF70EFF08B1FBF78AFF802126
:104C30000748FCF706FB402200210548FCF705FB6E
:104C4000802201210248FCF700FB002010BD00007B
:104C5000689600200A0601F07F01D0F8C80201EB37
:104C6000C10100EB810001D5807D704790F85602AC
:104C7000704710B5D0F8D42200EB8202D2F8B822E7
:104C800022B190F89C32032B02D004E0032010BD27
:104C9000126A02B19047002010BD10B5D0F8D4229E
:104CA00000EB8202D2F8B82222B190F89C32032B9A
:104CB00002D004E0032010BD526A02B190470020E8
:104CC00010BD10B51C461346D0F8C8022246FCF7AA
:104CD00063FBBDE81040FFF7A1BE10B5D0F8C802D5
:104CE000FCF78BFBBDE81040FFF798BE2DE9F041C3
:104CF00000260125044680F89C52C4F89462666040
:104D0000C4F8A46280F8A062D0F8B80230B142685A
:104D100022B100212046904700B103260022402303
:104D200011462046FFF7CDFF402784F86351A4F8D1
:104D300060713B46002280212046FFF7C2FF84F8C5
:104D4000235027843046BDE8F08190F89C12042956
:104D500003D190F89D1280F89C120020704710B586
:104D600090F89C12032905D1D0F8B81211B1C96985
:104D700001B18847002010BD01740020704710B5B4
:104D8000D0F8C802FCF724FFBDE81040FFF746BE8C
:104D900070B5044600F2AA20054600F051F8012043
:104DA000C4F89402B4F8B002C4F8980294F8AA02C5
:104DB00010F01F010AD001290ED0022912D000F0F4
:104DC00080012046BDE8704000F012B82946204618
:104DD000BDE8704000F0D0B829462046BDE87040DC
:104DE00000F013BA29462046BDE8704000F05AB9D9
:104DF00010B5D0F8C802FCF71CFBBDE81040FFF767
:104E00000DBE10B5D0F8C802FCF7FCFEBDE810409E
:104E1000FFF704BE90F89C12042903D090F89C126E
:104E200080F89D12042180F89C120020704710B574
:104E3000D0F8C802FCF736FBBDE81040FFF7EEBD26
:104E400070B5054611F8010B2870087868704C1C85
:104E50002046FEF799FC6880A41C2046FEF794FCCF
:104E6000A880A01CFEF790FCE88070BD38B5044611
:104E70000020ADF80000A1B1C4F8B812D4F8D402F3
:104E800004EB8000D0F8B802C16A19B168468847BF
:104E9000C4F8D002D4F8D802401CC4F8D8020020CC
:104EA00038BD032038BD02460020D2F8B832002BAE
:104EB00002D01B6810461847704700002DE9F041EA
:104EC00088462B4E8978002504463170012906D981
:104ED00041462046FFF726FC0320BDE8F08194F808
:104EE0009C02022702280CD003281DD041462046F0
:104EF000FFF718FC31782046FFF7F6FB032528461C
:104F0000EBE789B320466160FFF7CDFF050004D0D1
:104F100041462046FFF706FC1DE02046FFF737FC20
:104F2000032084F89C02EAE7C1B1606888421BD084
:104F3000C1B22046FFF7D8FB317820466160FFF709
:104F4000B2FF050010D041462046FFF7EBFB217968
:104F50002046FFF7C9FB84F89C72D0E784F89C7266
:104F600020466160FFF7C0FB2046FFF710FCC6E754
:104F700020010020FFF745BF2DE9F0410A78002508
:104F800012F060020CD0202A01D0402A7DD1D0F846
:104F9000D42200EB8202D2F8B8229268904731E026
:104FA0004B78002201260A2B6FD2DFE803F041661E
:104FB0006E586E08056E2D29FFF768FC67E0044601
:104FC0008888D8B9C888C8B94888802816D200F01F
:104FD0007F0794F89C02032810D084F89E7239460B
:104FE0002046FFF7CCFE2046FFF7D1FB1FB1022081
:104FF00084F89C024BE084F89C6248E0204644E040
:10500000FFF75CFF054642E0CB88012B3DD190F8CD
:105010009C32012B04D0022B02D0032B35D104E0AB
:105020008260012200F1080116E00122011D13E057
:1050300090F89C22012A03D0022A01D0032A24D10D
:10504000CA88022A21D1C660D0F8A41209B103216E
:10505000C160022200F10C01FFF78BFB17E04A88C8
:10506000012A02D0022A03D00FE0C0F8A46216E0A1
:105070008988090A80F8A01211E090F89C32012B6F
:1050800008D0022B06D0032B04D0FFF74BFB284699
:10509000BDE8F08149880129F9D1C0F8A422FFF7C1
:1050A00076FBF4E72DE9F041054608780C790E46C9
:1050B0004FF0000810F060000BD0202801D04028ED
:1050C0006BD121462846FFF719FBFF2800D0D8B343
:1050D00098E07078C8B3012824D003285DD195F8F2
:1050E0009C02022802D0032857D10CE0002C54D097
:1050F000802C52D021462846FFF77AFE8021284690
:10510000FFF776FE7EE0708840B93CB1802C05D078
:10511000C88818B921462846FFF76AFE2846FFF7D7
:1051200036FB6FE095F89C020228DFD0032866D199
:10513000708888BB600603D021462846FFF78DFCA7
:105140002846FFF724FBBCE700E00AE0C5F8D402DC
:10515000D5F8B8028268FAB13146284690478046B1
:1051600050E095F89C020027022802D0032846D17F
:1051700014E00CB1802C42D1200604F07F0000EB3B
:10518000800005EB800101D5143101E001F5AA7121
:10519000022201F80E7F2EE034E030E0200604F019
:1051A0000F0000EB800005EB80000AD590F823008B
:1051B00028B304F07F0000EB800005EB8006143676
:1051C0000AE090F86301D0B104F07F0000EB8000AA
:1051D00005EB800606F5AA764CB1802C07D0214657
:1051E0002846FFF737FD10B10120B07300E0B77318
:1051F000022206F10E012846FFF7BBFA02E028461C
:10520000FFF790FA4046BDE8F08170B50546087892
:1052100000240E4610F0600003D0202801D0402862
:1052200027D195F89C02012803D0022801D0032839
:105230001FD1B088C1B201291AD8C1B22846FFF7E0
:105240005FFAFF280CD058B9D5F8B8128A683AB17D
:10525000C5F8D4028A68314628469047044600E0E3
:105260000324F088204307D12846FFF790FA03E093
:1052700031462846FFF756FA204670BD70470000B9
:10528000004870474894002070B50A78012302F066
:105290000F054E78AB401B4CD0F81C58012E17D090
:1052A00045EA0343C0F81C3800EB4210D0F8002B4D
:1052B00012040BD4D0F8002B0B890979C3F30A032D
:1052C0001A4344EA81410A43C0F8002B002070BD14
:1052D0009BB21D43C0F81C5800EB4210D0F80039B7
:1052E0001B04F3D4D0F800390D890979C5F30A05F8
:1052F00089042B4341EA82510B432343C0F8003910
:10530000E4E7000000800010D0F800196FF30A01F4
:10531000C0F80019D0F8041841F48071C0F80418DE
:105320000020704770B50D460446C2F3072104986B
:105330001E4601291BD0E06840F04000E060204696
:1053400000F032F8C6F307210029A16B26D021F422
:105350008031A163C5F30741012907D1A16841F05C
:105360000601A160A16841F02001A16070BDA16BA0
:1053700021F48031A163E1680A4A1140E160E168EB
:1053800021F44011E160C0B2012803D1E06840F48B
:105390008010E060204600F007F8DBE741F4803140
:1053A000D7E70000BFFFBDFF08B5002100914FF017
:1053B0007061009A521C00928A4210D80269002A39
:1053C000F7DA0A220092521E0092FCD1026942F0E2
:1053D00001020261009A521C00928A4201D9032004
:1053E00008BD0269D207F5D1002008BD30B54C7860
:1053F0000A78012300EB4212012C2CD0D2F8004B8A
:10540000002C0BDAD2F8004B44F00064C2F8004BD9
:10541000D2F8004B44F08044C2F8004BD0F83C581E
:105420000C7804F00F0403FA04F425EA0444C0F8ED
:105430003C48D0F81C48097801F00F018B4024EA61
:105440000341C0F81C18D2F8000B19490840C2F8F3
:10545000000B002030BDD2F80049002C0BDAD2F846
:10546000004944F00064C2F80049D2F8004944F011
:105470008044C2F80049D0F83C480D7805F00F058B
:1054800003FA05F5ADB2AC43C0F83C48D0F81C486F
:10549000097801F00F018B4099B28C43C0F81C4889
:1054A000D2F8000903490840C2F80009D1E700001A
:1054B0000078F3EF007833ECD0F8001E21F0030100
:1054C000C0F8001ED0F8041821F00201C0F804183A
:1054D00000207047D0F8001E21F00301C0F8001E24
:1054E000D0F8041841F00201C0F8041800207047F9
:1054F0002DE9F04F00250E4604461746284629465A
:1055000004EB8002C2F80411401C0F28F8D3C3F347
:1055100007405FEA0009204616D0806B20F4001295
:10552000A263A06B40F40022A2630846884621468D
:10553000C4F8000EC7F30720012817D00846D1F899
:10554000001841F0030118E0D0F8040840F002020E
:10555000C4F80428A06B40F40012A263A06B20F4EE
:105560000022A263A06B20F48022DDE7300E084603
:10557000D1F8001801D041F00101C0F80018102145
:1055800000F08BFA00B10125204600F06AFA00B164
:1055900001254046C4F81088C4F81488C4F81C8853
:1055A00000214FF0006B4FF0904E4FF67F3AF2B271
:1055B00015E000BF04EB4113D3F800C9BCF1000FA4
:1055C00006DA11B1C3F800E904E0C4F800B901E05B
:1055D000C3F80009C3F81009C3F808A9491C8A4296
:1055E000E8D8002115E000BF04EB4113D3F800CB4D
:1055F000BCF1000F06DA11B1C3F800EB04E0C4F807
:1056000000BB01E0C3F8000BC3F8100BC3F808ABF4
:10561000491C8A42E8D8D4F8101821F48072C4F8E2
:105620001028A0616FF080406061C6F3074018B990
:10563000A06940F01000A061A0690A490843A06178
:10564000C7F3074018B1A06940F00800A061B9F1A4
:10565000010F03D1A06904490843A0612846BDE8B1
:10566000F08F000000383C8004000040816821F089
:10567000010181600020704710B5036C134CA342F8
:1056800003D9D0F8003B002B1EDB0023C0F8103BF1
:10569000D0F8103B43F40023C0F8103BD0F8103B87
:1056A00043F01803C0F8103BD0F8103B43F0C04360
:1056B000C0F8103B012907D1C0F8142BD0F8001B0B
:1056C00041F08021C0F8001B002010BD0A30544F6B
:1056D0004A780B78012A00EB43100BD0D0F8002B4E
:1056E00022F40012C0F8002B0979032914D00229F2
:1056F00012D017E0D0F8002922F40012C0F80029D7
:105700000979032901D002290CD1D0F8001941F000
:105710008051C0F8001905E0D0F8001B41F080511D
:10572000C0F8001B002070470A784B78D1B200EB1C
:105730004110012B12D0D0F8001B002906DB2AB142
:10574000D0F8001B21F08041C0F8001BD0F8001BEE
:1057500041F40011C0F8001B00207047D0F8001978
:10576000002906DB2AB1D0F8001921F08041C0F8E9
:105770000019D0F8001941F40011C0F80019EBE746
:10578000F8B50C784F788B4DE3B26FF0604600EBC4
:105790004313012F29D0D3F8107B6FF31207C3F8FE
:1057A000107BD3F8107B2F40C3F8107B002C7DD0EA
:1057B0000D69002D7BD08C6825446D1EB5FBF4F57A
:1057C000ADB26C430C62D3F8104B06EAC5452C43CE
:1057D000C3F8104BD3F8104B0D6AC5F312052C43D8
:1057E000C3F8104B012A70D0CBE00F69EFB1D3F8AA
:1057F00010796FF31207C3F81079D3F810792F409E
:10580000C3F810790CB30F698D682F447F1EB7FB66
:10581000F5F5D3F81079ADB206EAC5463743C3F8BB
:1058200010790E79012E1CD02AE0D3F810692E4091
:10583000C3F81069D3F8105945F40025C3F810597E
:10584000D3F810596FF3120520E00E698D68AE424F
:1058500000D90D61D0F8105945F40026C0F8106940
:105860000EE0D3F8106926F0C046C3F81069D3F8EB
:1058700010694FF0C04707EA45752E43C3F8106919
:10588000D3F810590E69C6F312063543C3F8105900
:10589000012A1BD000EB4413D3F8004944F0044420
:1058A000C3F800490C79012C31D001E044E057E005
:1058B0000A695AB3D0F83428097801F00F0301219E
:1058C00099400A43C0F8342871E056E0CA691AB119
:1058D00000EB4413C3F81429097901290ED1D0F83B
:1058E0000818C90500EB4411D1F8002902D442F090
:1058F000005201E042F08052C1F8002900EB441050
:10590000D0F8001941F00441C0F800194FE0D0F878
:105910000848E405D3F8004902D444F0005401E0FB
:1059200044F08054C3F8004900920A8A93B20A787E
:10593000C96800F0DFF93AE00C690CB18C680C61C1
:105940008C680C62D0F8105BC4F312042543C0F8D5
:10595000105BD0F8104B44F40024C0F8104B41E722
:10596000D3F8104B8D68C5F312052C43C3F8104BC8
:10597000D3F8104B44F4002432E7CA680AB1C3F8E4
:10598000142B097901290CD1D0F80808C005D3F8E7
:10599000000B02D440F0005001E040F08050C3F80A
:1059A000000BD3F8000B40F00440C3F8000B0020BC
:1059B000F8BD0000FFFF07E038B500220092134653
:1059C0004D780A7842F2107400EB4212012D19D082
:1059D000D2F8005B002D3CDAD2F8005B45F00065A0
:1059E000C2F8005B0A7800EB4212D2F8005B45F087
:1059F0008045C2F8005B009A521C0092A24221D955
:105A0000012326E0D2F80059002D22DAD2F80059FD
:105A100045F00065C2F800590A7800EB4212D2F84E
:105A2000005945F08045C2F80059009A521C009276
:105A3000A242E5D80A7800EB4212D2F80029002AE7
:105A4000F3DB06E00A7800EB4212D2F8002B002AC2
:105A5000D1DB184638BD816841F00101816000202A
:105A6000704708B500214FF070620091009B5B1CED
:105A7000009393420AD80369002BF7DA00911021B2
:105A800001610099491C0091914201D9032008BD90
:105A90000169C906F5D4002008BD18B500224FF0F1
:105AA00070630092009C641C00949C420CD80469B2
:105AB000002CF7DA0092202242EA8111016100995C
:105AC000491C0091994201D9032018BD016989063A
:105AD000F5D4002018BDD0F8080810F0060004D056
